{
  "_format": "hh-sol-artifact-1",
  "contractName": "ERC721Factory",
  "sourceName": "contracts/ERC721Factory.sol",
  "abi": [
    {
      "inputs": [],
      "stateMutability": "nonpayable",
      "type": "constructor"
    },
    {
      "inputs": [
        {
          "internalType": "string",
          "name": "_name",
          "type": "string"
        },
        {
          "internalType": "string",
          "name": "_symbol",
          "type": "string"
        }
      ],
      "name": "createToken",
      "outputs": [
        {
          "internalType": "address",
          "name": "_contractAddr",
          "type": "address"
        }
      ],
      "stateMutability": "nonpayable",
      "type": "function"
    },
    {
      "inputs": [],
      "name": "erc721nft",
      "outputs": [
        {
          "internalType": "contract ERC721NFT",
          "name": "",
          "type": "address"
        }
      ],
      "stateMutability": "view",
      "type": "function"
    }
  ],
  "bytecode": "0x608060405234801561001057600080fd5b506139a0806100206000396000f3fe60806040523480156200001157600080fd5b50600436106200003a5760003560e01c80632f2f2d56146200003f57806345a6fbbb1462000075575b600080fd5b6200005d6004803603810190620000579190620001e0565b62000097565b6040516200006c9190620002b6565b60405180910390f35b6200007f6200013c565b6040516200008e9190620002d3565b60405180910390f35b60008282604051620000a99062000160565b620000b6929190620002f0565b604051809103906000f080158015620000d3573d6000803e3d6000fd5b506000806101000a81548173ffffffffffffffffffffffffffffffffffffffff021916908373ffffffffffffffffffffffffffffffffffffffff16021790555060008054906101000a900473ffffffffffffffffffffffffffffffffffffffff16905092915050565b60008054906101000a900473ffffffffffffffffffffffffffffffffffffffff1681565b6134ad80620004be83390190565b6000620001856200017f8462000354565b6200032b565b9050828152602081018484840111156200019e57600080fd5b620001ab84828562000402565b509392505050565b600082601f830112620001c557600080fd5b8135620001d78482602086016200016e565b91505092915050565b60008060408385031215620001f457600080fd5b600083013567ffffffffffffffff8111156200020f57600080fd5b6200021d85828601620001b3565b925050602083013567ffffffffffffffff8111156200023b57600080fd5b6200024985828601620001b3565b9150509250929050565b6200025e81620003a6565b82525050565b6200026f81620003da565b82525050565b600062000282826200038a565b6200028e818562000395565b9350620002a081856020860162000411565b620002ab81620004ac565b840191505092915050565b6000602082019050620002cd600083018462000253565b92915050565b6000602082019050620002ea600083018462000264565b92915050565b600060408201905081810360008301526200030c818562000275565b9050818103602083015262000322818462000275565b90509392505050565b6000620003376200034a565b905062000345828262000447565b919050565b6000604051905090565b600067ffffffffffffffff8211156200037257620003716200047d565b5b6200037d82620004ac565b9050602081019050919050565b600081519050919050565b600082825260208201905092915050565b6000620003b382620003ba565b9050919050565b600073ffffffffffffffffffffffffffffffffffffffff82169050919050565b6000620003e782620003ee565b9050919050565b6000620003fb82620003ba565b9050919050565b82818337600083830152505050565b60005b838110156200043157808201518184015260208101905062000414565b8381111562000441576000848401525b50505050565b6200045282620004ac565b810181811067ffffffffffffffff821117156200047457620004736200047d565b5b80604052505050565b7f4e487b7100000000000000000000000000000000000000000000000000000000600052604160045260246000fd5b6000601f19601f830116905091905056fe608060405260006008553480156200001657600080fd5b50604051620034ad380380620034ad83398181016040528101906200003c91906200028a565b818181600090805190602001906200005692919062000168565b5080600190805190602001906200006f92919062000168565b50505062000092620000866200009a60201b60201c565b620000a260201b60201c565b50506200046d565b600033905090565b6000600760009054906101000a900473ffffffffffffffffffffffffffffffffffffffff16905081600760006101000a81548173ffffffffffffffffffffffffffffffffffffffff021916908373ffffffffffffffffffffffffffffffffffffffff1602179055508173ffffffffffffffffffffffffffffffffffffffff168173ffffffffffffffffffffffffffffffffffffffff167f8be0079c531659141344cd1fd0a4f28419497f9722a3daafe3b4186f6b6457e060405160405180910390a35050565b828054620001769062000392565b90600052602060002090601f0160209004810192826200019a5760008555620001e6565b82601f10620001b557805160ff1916838001178555620001e6565b82800160010185558215620001e6579182015b82811115620001e5578251825591602001919060010190620001c8565b5b509050620001f59190620001f9565b5090565b5b8082111562000214576000816000905550600101620001fa565b5090565b60006200022f620002298462000326565b620002fd565b9050828152602081018484840111156200024857600080fd5b620002558482856200035c565b509392505050565b600082601f8301126200026f57600080fd5b81516200028184826020860162000218565b91505092915050565b600080604083850312156200029e57600080fd5b600083015167ffffffffffffffff811115620002b957600080fd5b620002c7858286016200025d565b925050602083015167ffffffffffffffff811115620002e557600080fd5b620002f3858286016200025d565b9150509250929050565b6000620003096200031c565b9050620003178282620003c8565b919050565b6000604051905090565b600067ffffffffffffffff8211156200034457620003436200042d565b5b6200034f826200045c565b9050602081019050919050565b60005b838110156200037c5780820151818401526020810190506200035f565b838111156200038c576000848401525b50505050565b60006002820490506001821680620003ab57607f821691505b60208210811415620003c257620003c1620003fe565b5b50919050565b620003d3826200045c565b810181811067ffffffffffffffff82111715620003f557620003f46200042d565b5b80604052505050565b7f4e487b7100000000000000000000000000000000000000000000000000000000600052602260045260246000fd5b7f4e487b7100000000000000000000000000000000000000000000000000000000600052604160045260246000fd5b6000601f19601f8301169050919050565b613030806200047d6000396000f3fe6080604052600436106101095760003560e01c8063715018a611610095578063b88d4fde11610064578063b88d4fde14610369578063c87b56dd14610392578063d0def521146103cf578063e985e9c5146103eb578063f2fde38b1461042857610109565b8063715018a6146102d35780638da5cb5b146102ea57806395d89b4114610315578063a22cb4651461034057610109565b8063095ea7b3116100dc578063095ea7b3146101de57806323b872dd1461020757806342842e0e146102305780636352211e1461025957806370a082311461029657610109565b806301ffc9a71461010e578063047fc9aa1461014b57806306fdde0314610176578063081812fc146101a1575b600080fd5b34801561011a57600080fd5b5061013560048036038101906101309190611fdf565b610451565b604051610142919061242b565b60405180910390f35b34801561015757600080fd5b50610160610533565b60405161016d91906126a8565b60405180910390f35b34801561018257600080fd5b5061018b610539565b6040516101989190612446565b60405180910390f35b3480156101ad57600080fd5b506101c860048036038101906101c39190612031565b6105cb565b6040516101d591906123c4565b60405180910390f35b3480156101ea57600080fd5b5061020560048036038101906102009190611fa3565b610650565b005b34801561021357600080fd5b5061022e60048036038101906102299190611e49565b610768565b005b34801561023c57600080fd5b5061025760048036038101906102529190611e49565b6107c8565b005b34801561026557600080fd5b50610280600480360381019061027b9190612031565b6107e8565b60405161028d91906123c4565b60405180910390f35b3480156102a257600080fd5b506102bd60048036038101906102b89190611de4565b61089a565b6040516102ca91906126a8565b60405180910390f35b3480156102df57600080fd5b506102e8610952565b005b3480156102f657600080fd5b506102ff6109da565b60405161030c91906123c4565b60405180910390f35b34801561032157600080fd5b5061032a610a04565b6040516103379190612446565b60405180910390f35b34801561034c57600080fd5b5061036760048036038101906103629190611f13565b610a96565b005b34801561037557600080fd5b50610390600480360381019061038b9190611e98565b610aac565b005b34801561039e57600080fd5b506103b960048036038101906103b49190612031565b610b0e565b6040516103c69190612446565b60405180910390f35b6103e960048036038101906103e49190611f4f565b610c60565b005b3480156103f757600080fd5b50610412600480360381019061040d9190611e0d565b610c94565b60405161041f919061242b565b60405180910390f35b34801561043457600080fd5b5061044f600480360381019061044a9190611de4565b610d28565b005b60007f80ac58cd000000000000000000000000000000000000000000000000000000007bffffffffffffffffffffffffffffffffffffffffffffffffffffffff1916827bffffffffffffffffffffffffffffffffffffffffffffffffffffffff1916148061051c57507f5b5e139f000000000000000000000000000000000000000000000000000000007bffffffffffffffffffffffffffffffffffffffffffffffffffffffff1916827bffffffffffffffffffffffffffffffffffffffffffffffffffffffff1916145b8061052c575061052b82610e20565b5b9050919050565b60085481565b606060008054610548906128fe565b80601f0160208091040260200160405190810160405280929190818152602001828054610574906128fe565b80156105c15780601f10610596576101008083540402835291602001916105c1565b820191906000526020600020905b8154815290600101906020018083116105a457829003601f168201915b5050505050905090565b60006105d682610e8a565b610615576040517f08c379a000000000000000000000000000000000000000000000000000000000815260040161060c90612608565b60405180910390fd5b6004600083815260200190815260200160002060009054906101000a900473ffffffffffffffffffffffffffffffffffffffff169050919050565b600061065b826107e8565b90508073ffffffffffffffffffffffffffffffffffffffff168373ffffffffffffffffffffffffffffffffffffffff1614156106cc576040517f08c379a00000000000000000000000000000000000000000000000000000000081526004016106c390612668565b60405180910390fd5b8073ffffffffffffffffffffffffffffffffffffffff166106eb610ef6565b73ffffffffffffffffffffffffffffffffffffffff16148061071a575061071981610714610ef6565b610c94565b5b610759576040517f08c379a000000000000000000000000000000000000000000000000000000000815260040161075090612548565b60405180910390fd5b6107638383610efe565b505050565b610779610773610ef6565b82610fb7565b6107b8576040517f08c379a00000000000000000000000000000000000000000000000000000000081526004016107af90612688565b60405180910390fd5b6107c3838383611095565b505050565b6107e383838360405180602001604052806000815250610aac565b505050565b6000806002600084815260200190815260200160002060009054906101000a900473ffffffffffffffffffffffffffffffffffffffff169050600073ffffffffffffffffffffffffffffffffffffffff168173ffffffffffffffffffffffffffffffffffffffff161415610891576040517f08c379a000000000000000000000000000000000000000000000000000000000815260040161088890612588565b60405180910390fd5b80915050919050565b60008073ffffffffffffffffffffffffffffffffffffffff168273ffffffffffffffffffffffffffffffffffffffff16141561090b576040517f08c379a000000000000000000000000000000000000000000000000000000000815260040161090290612568565b60405180910390fd5b600360008373ffffffffffffffffffffffffffffffffffffffff1673ffffffffffffffffffffffffffffffffffffffff168152602001908152602001600020549050919050565b61095a610ef6565b73ffffffffffffffffffffffffffffffffffffffff166109786109da565b73ffffffffffffffffffffffffffffffffffffffff16146109ce576040517f08c379a00000000000000000000000000000000000000000000000000000000081526004016109c590612628565b60405180910390fd5b6109d860006112fc565b565b6000600760009054906101000a900473ffffffffffffffffffffffffffffffffffffffff16905090565b606060018054610a13906128fe565b80601f0160208091040260200160405190810160405280929190818152602001828054610a3f906128fe565b8015610a8c5780601f10610a6157610100808354040283529160200191610a8c565b820191906000526020600020905b815481529060010190602001808311610a6f57829003601f168201915b5050505050905090565b610aa8610aa1610ef6565b83836113c2565b5050565b610abd610ab7610ef6565b83610fb7565b610afc576040517f08c379a0000000000000000000000000000000000000000000000000000000008152600401610af390612688565b60405180910390fd5b610b088484848461152f565b50505050565b6060610b1982610e8a565b610b58576040517f08c379a0000000000000000000000000000000000000000000000000000000008152600401610b4f906125e8565b60405180910390fd5b6000600660008481526020019081526020016000208054610b78906128fe565b80601f0160208091040260200160405190810160405280929190818152602001828054610ba4906128fe565b8015610bf15780601f10610bc657610100808354040283529160200191610bf1565b820191906000526020600020905b815481529060010190602001808311610bd457829003601f168201915b505050505090506000610c0261158b565b9050600081511415610c18578192505050610c5b565b600082511115610c4d578082604051602001610c359291906123a0565b60405160208183030381529060405292505050610c5b565b610c56846115a2565b925050505b919050565b610c6c82600854611649565b610c7860085482611823565b60086000815480929190610c8b90612961565b91905055505050565b6000600560008473ffffffffffffffffffffffffffffffffffffffff1673ffffffffffffffffffffffffffffffffffffffff16815260200190815260200160002060008373ffffffffffffffffffffffffffffffffffffffff1673ffffffffffffffffffffffffffffffffffffffff16815260200190815260200160002060009054906101000a900460ff16905092915050565b610d30610ef6565b73ffffffffffffffffffffffffffffffffffffffff16610d4e6109da565b73ffffffffffffffffffffffffffffffffffffffff1614610da4576040517f08c379a0000000000000000000000000000000000000000000000000000000008152600401610d9b90612628565b60405180910390fd5b600073ffffffffffffffffffffffffffffffffffffffff168173ffffffffffffffffffffffffffffffffffffffff161415610e14576040517f08c379a0000000000000000000000000000000000000000000000000000000008152600401610e0b90612488565b60405180910390fd5b610e1d816112fc565b50565b60007f01ffc9a7000000000000000000000000000000000000000000000000000000007bffffffffffffffffffffffffffffffffffffffffffffffffffffffff1916827bffffffffffffffffffffffffffffffffffffffffffffffffffffffff1916149050919050565b60008073ffffffffffffffffffffffffffffffffffffffff166002600084815260200190815260200160002060009054906101000a900473ffffffffffffffffffffffffffffffffffffffff1673ffffffffffffffffffffffffffffffffffffffff1614159050919050565b600033905090565b816004600083815260200190815260200160002060006101000a81548173ffffffffffffffffffffffffffffffffffffffff021916908373ffffffffffffffffffffffffffffffffffffffff160217905550808273ffffffffffffffffffffffffffffffffffffffff16610f71836107e8565b73ffffffffffffffffffffffffffffffffffffffff167f8c5be1e5ebec7d5bd14f71427d1e84f3dd0314c0f7b2291e5b200ac8c7c3b92560405160405180910390a45050565b6000610fc282610e8a565b611001576040517f08c379a0000000000000000000000000000000000000000000000000000000008152600401610ff890612528565b60405180910390fd5b600061100c836107e8565b90508073ffffffffffffffffffffffffffffffffffffffff168473ffffffffffffffffffffffffffffffffffffffff16148061104e575061104d8185610c94565b5b8061108c57508373ffffffffffffffffffffffffffffffffffffffff16611074846105cb565b73ffffffffffffffffffffffffffffffffffffffff16145b91505092915050565b8273ffffffffffffffffffffffffffffffffffffffff166110b5826107e8565b73ffffffffffffffffffffffffffffffffffffffff161461110b576040517f08c379a0000000000000000000000000000000000000000000000000000000008152600401611102906124a8565b60405180910390fd5b600073ffffffffffffffffffffffffffffffffffffffff168273ffffffffffffffffffffffffffffffffffffffff16141561117b576040517f08c379a0000000000000000000000000000000000000000000000000000000008152600401611172906124e8565b60405180910390fd5b611186838383611897565b611191600082610efe565b6001600360008573ffffffffffffffffffffffffffffffffffffffff1673ffffffffffffffffffffffffffffffffffffffff16815260200190815260200160002060008282546111e19190612814565b925050819055506001600360008473ffffffffffffffffffffffffffffffffffffffff1673ffffffffffffffffffffffffffffffffffffffff1681526020019081526020016000206000828254611238919061278d565b92505081905550816002600083815260200190815260200160002060006101000a81548173ffffffffffffffffffffffffffffffffffffffff021916908373ffffffffffffffffffffffffffffffffffffffff160217905550808273ffffffffffffffffffffffffffffffffffffffff168473ffffffffffffffffffffffffffffffffffffffff167fddf252ad1be2c89b69c2b068fc378daa952ba7f163c4a11628f55a4df523b3ef60405160405180910390a46112f783838361189c565b505050565b6000600760009054906101000a900473ffffffffffffffffffffffffffffffffffffffff16905081600760006101000a81548173ffffffffffffffffffffffffffffffffffffffff021916908373ffffffffffffffffffffffffffffffffffffffff1602179055508173ffffffffffffffffffffffffffffffffffffffff168173ffffffffffffffffffffffffffffffffffffffff167f8be0079c531659141344cd1fd0a4f28419497f9722a3daafe3b4186f6b6457e060405160405180910390a35050565b8173ffffffffffffffffffffffffffffffffffffffff168373ffffffffffffffffffffffffffffffffffffffff161415611431576040517f08c379a000000000000000000000000000000000000000000000000000000000815260040161142890612508565b60405180910390fd5b80600560008573ffffffffffffffffffffffffffffffffffffffff1673ffffffffffffffffffffffffffffffffffffffff16815260200190815260200160002060008473ffffffffffffffffffffffffffffffffffffffff1673ffffffffffffffffffffffffffffffffffffffff16815260200190815260200160002060006101000a81548160ff0219169083151502179055508173ffffffffffffffffffffffffffffffffffffffff168373ffffffffffffffffffffffffffffffffffffffff167f17307eab39ab6107e8899845ad3d59bd9653f200f220920489ca2b5937696c3183604051611522919061242b565b60405180910390a3505050565b61153a848484611095565b611546848484846118a1565b611585576040517f08c379a000000000000000000000000000000000000000000000000000000000815260040161157c90612468565b60405180910390fd5b50505050565b606060405180602001604052806000815250905090565b60606115ad82610e8a565b6115ec576040517f08c379a00000000000000000000000000000000000000000000000000000000081526004016115e390612648565b60405180910390fd5b60006115f661158b565b905060008151116116165760405180602001604052806000815250611641565b8061162084611a38565b6040516020016116319291906123a0565b6040516020818303038152906040525b915050919050565b600073ffffffffffffffffffffffffffffffffffffffff168273ffffffffffffffffffffffffffffffffffffffff1614156116b9576040517f08c379a00000000000000000000000000000000000000000000000000000000081526004016116b0906125c8565b60405180910390fd5b6116c281610e8a565b15611702576040517f08c379a00000000000000000000000000000000000000000000000000000000081526004016116f9906124c8565b60405180910390fd5b61170e60008383611897565b6001600360008473ffffffffffffffffffffffffffffffffffffffff1673ffffffffffffffffffffffffffffffffffffffff168152602001908152602001600020600082825461175e919061278d565b92505081905550816002600083815260200190815260200160002060006101000a81548173ffffffffffffffffffffffffffffffffffffffff021916908373ffffffffffffffffffffffffffffffffffffffff160217905550808273ffffffffffffffffffffffffffffffffffffffff16600073ffffffffffffffffffffffffffffffffffffffff167fddf252ad1be2c89b69c2b068fc378daa952ba7f163c4a11628f55a4df523b3ef60405160405180910390a461181f6000838361189c565b5050565b61182c82610e8a565b61186b576040517f08c379a0000000000000000000000000000000000000000000000000000000008152600401611862906125a8565b60405180910390fd5b80600660008481526020019081526020016000209080519060200190611892929190611c08565b505050565b505050565b505050565b60006118c28473ffffffffffffffffffffffffffffffffffffffff16611be5565b15611a2b578373ffffffffffffffffffffffffffffffffffffffff1663150b7a026118eb610ef6565b8786866040518563ffffffff1660e01b815260040161190d94939291906123df565b602060405180830381600087803b15801561192757600080fd5b505af192505050801561195857506040513d601f19601f820116820180604052508101906119559190612008565b60015b6119db573d8060008114611988576040519150601f19603f3d011682016040523d82523d6000602084013e61198d565b606091505b506000815114156119d3576040517f08c379a00000000000000000000000000000000000000000000000000000000081526004016119ca90612468565b60405180910390fd5b805181602001fd5b63150b7a0260e01b7bffffffffffffffffffffffffffffffffffffffffffffffffffffffff1916817bffffffffffffffffffffffffffffffffffffffffffffffffffffffff191614915050611a30565b600190505b949350505050565b60606000821415611a80576040518060400160405280600181526020017f30000000000000000000000000000000000000000000000000000000000000008152509050611be0565b600082905060005b60008214611ab2578080611a9b90612961565b915050600a82611aab91906127e3565b9150611a88565b60008167ffffffffffffffff811115611af4577f4e487b7100000000000000000000000000000000000000000000000000000000600052604160045260246000fd5b6040519080825280601f01601f191660200182016040528015611b265781602001600182028036833780820191505090505b5090505b60008514611bd957600182611b3f9190612814565b9150600a85611b4e91906129aa565b6030611b5a919061278d565b60f81b818381518110611b96577f4e487b7100000000000000000000000000000000000000000000000000000000600052603260045260246000fd5b60200101907effffffffffffffffffffffffffffffffffffffffffffffffffffffffffffff1916908160001a905350600a85611bd291906127e3565b9450611b2a565b8093505050505b919050565b6000808273ffffffffffffffffffffffffffffffffffffffff163b119050919050565b828054611c14906128fe565b90600052602060002090601f016020900481019282611c365760008555611c7d565b82601f10611c4f57805160ff1916838001178555611c7d565b82800160010185558215611c7d579182015b82811115611c7c578251825591602001919060010190611c61565b5b509050611c8a9190611c8e565b5090565b5b80821115611ca7576000816000905550600101611c8f565b5090565b6000611cbe611cb9846126e8565b6126c3565b905082815260208101848484011115611cd657600080fd5b611ce18482856128bc565b509392505050565b6000611cfc611cf784612719565b6126c3565b905082815260208101848484011115611d1457600080fd5b611d1f8482856128bc565b509392505050565b600081359050611d3681612f9e565b92915050565b600081359050611d4b81612fb5565b92915050565b600081359050611d6081612fcc565b92915050565b600081519050611d7581612fcc565b92915050565b600082601f830112611d8c57600080fd5b8135611d9c848260208601611cab565b91505092915050565b600082601f830112611db657600080fd5b8135611dc6848260208601611ce9565b91505092915050565b600081359050611dde81612fe3565b92915050565b600060208284031215611df657600080fd5b6000611e0484828501611d27565b91505092915050565b60008060408385031215611e2057600080fd5b6000611e2e85828601611d27565b9250506020611e3f85828601611d27565b9150509250929050565b600080600060608486031215611e5e57600080fd5b6000611e6c86828701611d27565b9350506020611e7d86828701611d27565b9250506040611e8e86828701611dcf565b9150509250925092565b60008060008060808587031215611eae57600080fd5b6000611ebc87828801611d27565b9450506020611ecd87828801611d27565b9350506040611ede87828801611dcf565b925050606085013567ffffffffffffffff811115611efb57600080fd5b611f0787828801611d7b565b91505092959194509250565b60008060408385031215611f2657600080fd5b6000611f3485828601611d27565b9250506020611f4585828601611d3c565b9150509250929050565b60008060408385031215611f6257600080fd5b6000611f7085828601611d27565b925050602083013567ffffffffffffffff811115611f8d57600080fd5b611f9985828601611da5565b9150509250929050565b60008060408385031215611fb657600080fd5b6000611fc485828601611d27565b9250506020611fd585828601611dcf565b9150509250929050565b600060208284031215611ff157600080fd5b6000611fff84828501611d51565b91505092915050565b60006020828403121561201a57600080fd5b600061202884828501611d66565b91505092915050565b60006020828403121561204357600080fd5b600061205184828501611dcf565b91505092915050565b61206381612848565b82525050565b6120728161285a565b82525050565b60006120838261274a565b61208d8185612760565b935061209d8185602086016128cb565b6120a681612a97565b840191505092915050565b60006120bc82612755565b6120c68185612771565b93506120d68185602086016128cb565b6120df81612a97565b840191505092915050565b60006120f582612755565b6120ff8185612782565b935061210f8185602086016128cb565b80840191505092915050565b6000612128603283612771565b915061213382612aa8565b604082019050919050565b600061214b602683612771565b915061215682612af7565b604082019050919050565b600061216e602583612771565b915061217982612b46565b604082019050919050565b6000612191601c83612771565b915061219c82612b95565b602082019050919050565b60006121b4602483612771565b91506121bf82612bbe565b604082019050919050565b60006121d7601983612771565b91506121e282612c0d565b602082019050919050565b60006121fa602c83612771565b915061220582612c36565b604082019050919050565b600061221d603883612771565b915061222882612c85565b604082019050919050565b6000612240602a83612771565b915061224b82612cd4565b604082019050919050565b6000612263602983612771565b915061226e82612d23565b604082019050919050565b6000612286602e83612771565b915061229182612d72565b604082019050919050565b60006122a9602083612771565b91506122b482612dc1565b602082019050919050565b60006122cc603183612771565b91506122d782612dea565b604082019050919050565b60006122ef602c83612771565b91506122fa82612e39565b604082019050919050565b6000612312602083612771565b915061231d82612e88565b602082019050919050565b6000612335602f83612771565b915061234082612eb1565b604082019050919050565b6000612358602183612771565b915061236382612f00565b604082019050919050565b600061237b603183612771565b915061238682612f4f565b604082019050919050565b61239a816128b2565b82525050565b60006123ac82856120ea565b91506123b882846120ea565b91508190509392505050565b60006020820190506123d9600083018461205a565b92915050565b60006080820190506123f4600083018761205a565b612401602083018661205a565b61240e6040830185612391565b81810360608301526124208184612078565b905095945050505050565b60006020820190506124406000830184612069565b92915050565b6000602082019050818103600083015261246081846120b1565b905092915050565b600060208201905081810360008301526124818161211b565b9050919050565b600060208201905081810360008301526124a18161213e565b9050919050565b600060208201905081810360008301526124c181612161565b9050919050565b600060208201905081810360008301526124e181612184565b9050919050565b60006020820190508181036000830152612501816121a7565b9050919050565b60006020820190508181036000830152612521816121ca565b9050919050565b60006020820190508181036000830152612541816121ed565b9050919050565b6000602082019050818103600083015261256181612210565b9050919050565b6000602082019050818103600083015261258181612233565b9050919050565b600060208201905081810360008301526125a181612256565b9050919050565b600060208201905081810360008301526125c181612279565b9050919050565b600060208201905081810360008301526125e18161229c565b9050919050565b60006020820190508181036000830152612601816122bf565b9050919050565b60006020820190508181036000830152612621816122e2565b9050919050565b6000602082019050818103600083015261264181612305565b9050919050565b6000602082019050818103600083015261266181612328565b9050919050565b600060208201905081810360008301526126818161234b565b9050919050565b600060208201905081810360008301526126a18161236e565b9050919050565b60006020820190506126bd6000830184612391565b92915050565b60006126cd6126de565b90506126d98282612930565b919050565b6000604051905090565b600067ffffffffffffffff82111561270357612702612a68565b5b61270c82612a97565b9050602081019050919050565b600067ffffffffffffffff82111561273457612733612a68565b5b61273d82612a97565b9050602081019050919050565b600081519050919050565b600081519050919050565b600082825260208201905092915050565b600082825260208201905092915050565b600081905092915050565b6000612798826128b2565b91506127a3836128b2565b9250827fffffffffffffffffffffffffffffffffffffffffffffffffffffffffffffffff038211156127d8576127d76129db565b5b828201905092915050565b60006127ee826128b2565b91506127f9836128b2565b92508261280957612808612a0a565b5b828204905092915050565b600061281f826128b2565b915061282a836128b2565b92508282101561283d5761283c6129db565b5b828203905092915050565b600061285382612892565b9050919050565b60008115159050919050565b60007fffffffff0000000000000000000000000000000000000000000000000000000082169050919050565b600073ffffffffffffffffffffffffffffffffffffffff82169050919050565b6000819050919050565b82818337600083830152505050565b60005b838110156128e95780820151818401526020810190506128ce565b838111156128f8576000848401525b50505050565b6000600282049050600182168061291657607f821691505b6020821081141561292a57612929612a39565b5b50919050565b61293982612a97565b810181811067ffffffffffffffff8211171561295857612957612a68565b5b80604052505050565b600061296c826128b2565b91507fffffffffffffffffffffffffffffffffffffffffffffffffffffffffffffffff82141561299f5761299e6129db565b5b600182019050919050565b60006129b5826128b2565b91506129c0836128b2565b9250826129d0576129cf612a0a565b5b828206905092915050565b7f4e487b7100000000000000000000000000000000000000000000000000000000600052601160045260246000fd5b7f4e487b7100000000000000000000000000000000000000000000000000000000600052601260045260246000fd5b7f4e487b7100000000000000000000000000000000000000000000000000000000600052602260045260246000fd5b7f4e487b7100000000000000000000000000000000000000000000000000000000600052604160045260246000fd5b6000601f19601f8301169050919050565b7f4552433732313a207472616e7366657220746f206e6f6e20455243373231526560008201527f63656976657220696d706c656d656e7465720000000000000000000000000000602082015250565b7f4f776e61626c653a206e6577206f776e657220697320746865207a65726f206160008201527f6464726573730000000000000000000000000000000000000000000000000000602082015250565b7f4552433732313a207472616e736665722066726f6d20696e636f72726563742060008201527f6f776e6572000000000000000000000000000000000000000000000000000000602082015250565b7f4552433732313a20746f6b656e20616c7265616479206d696e74656400000000600082015250565b7f4552433732313a207472616e7366657220746f20746865207a65726f2061646460008201527f7265737300000000000000000000000000000000000000000000000000000000602082015250565b7f4552433732313a20617070726f766520746f2063616c6c657200000000000000600082015250565b7f4552433732313a206f70657261746f7220717565727920666f72206e6f6e657860008201527f697374656e7420746f6b656e0000000000000000000000000000000000000000602082015250565b7f4552433732313a20617070726f76652063616c6c6572206973206e6f74206f7760008201527f6e6572206e6f7220617070726f76656420666f7220616c6c0000000000000000602082015250565b7f4552433732313a2062616c616e636520717565727920666f7220746865207a6560008201527f726f206164647265737300000000000000000000000000000000000000000000602082015250565b7f4552433732313a206f776e657220717565727920666f72206e6f6e657869737460008201527f656e7420746f6b656e0000000000000000000000000000000000000000000000602082015250565b7f45524337323155524953746f726167653a2055524920736574206f66206e6f6e60008201527f6578697374656e7420746f6b656e000000000000000000000000000000000000602082015250565b7f4552433732313a206d696e7420746f20746865207a65726f2061646472657373600082015250565b7f45524337323155524953746f726167653a2055524920717565727920666f722060008201527f6e6f6e6578697374656e7420746f6b656e000000000000000000000000000000602082015250565b7f4552433732313a20617070726f76656420717565727920666f72206e6f6e657860008201527f697374656e7420746f6b656e0000000000000000000000000000000000000000602082015250565b7f4f776e61626c653a2063616c6c6572206973206e6f7420746865206f776e6572600082015250565b7f4552433732314d657461646174613a2055524920717565727920666f72206e6f60008201527f6e6578697374656e7420746f6b656e0000000000000000000000000000000000602082015250565b7f4552433732313a20617070726f76616c20746f2063757272656e74206f776e6560008201527f7200000000000000000000000000000000000000000000000000000000000000602082015250565b7f4552433732313a207472616e736665722063616c6c6572206973206e6f74206f60008201527f776e6572206e6f7220617070726f766564000000000000000000000000000000602082015250565b612fa781612848565b8114612fb257600080fd5b50565b612fbe8161285a565b8114612fc957600080fd5b50565b612fd581612866565b8114612fe057600080fd5b50565b612fec816128b2565b8114612ff757600080fd5b5056fea26469706673582212209c4c66c2997dcbc7a72406ee7a98f3163f9d7ae6b8fe803e0689d89f49b31da064736f6c63430008030033a26469706673582212201d58d2ee76bd026cb52aeecade1f7d6d2769ca8ada61198091e5a0f78ed24a6d64736f6c63430008030033",
  "linkReferences": {},
  "deployedLinkReferences": {}
}