{
  "_format": "hh-sol-artifact-1",
  "contractName": "NFTMarketplace",
  "sourceName": "contracts/NFTMarketplace.sol",
  "abi": [
    {
      "inputs": [],
      "stateMutability": "nonpayable",
      "type": "constructor"
    },
    {
      "inputs": [],
      "name": "create_ERC1155_collection",
      "outputs": [
        {
          "internalType": "address",
          "name": "_contractAddr",
          "type": "address"
        }
      ],
      "stateMutability": "nonpayable",
      "type": "function"
    },
    {
      "inputs": [],
      "name": "erc1155nft",
      "outputs": [
        {
          "internalType": "contract ERC1155NFT",
          "name": "",
          "type": "address"
        }
      ],
      "stateMutability": "view",
      "type": "function"
    },
    {
      "inputs": [],
      "name": "erc721nft",
      "outputs": [
        {
          "internalType": "contract ERC721NFT",
          "name": "",
          "type": "address"
        }
      ],
      "stateMutability": "view",
      "type": "function"
    }
  ],
  "bytecode": "0x608060405234801561001057600080fd5b50612f47806100206000396000f3fe608060405234801561001057600080fd5b50600436106100415760003560e01c806345a6fbbb14610046578063b4c8fda214610064578063b59b0ad114610082575b600080fd5b61004e6100a0565b60405161005b91906101ed565b60405180910390f35b61006c6100c4565b60405161007991906101d2565b60405180910390f35b61008a6100ea565b60405161009791906101b7565b60405180910390f35b60008054906101000a900473ffffffffffffffffffffffffffffffffffffffff1681565b600160009054906101000a900473ffffffffffffffffffffffffffffffffffffffff1681565b60006040516100f89061017d565b604051809103906000f080158015610114573d6000803e3d6000fd5b50600160006101000a81548173ffffffffffffffffffffffffffffffffffffffff021916908373ffffffffffffffffffffffffffffffffffffffff160217905550600160009054906101000a900473ffffffffffffffffffffffffffffffffffffffff16905090565b612c8f8061028383390190565b61019381610208565b82525050565b6101a28161023a565b82525050565b6101b18161025e565b82525050565b60006020820190506101cc600083018461018a565b92915050565b60006020820190506101e76000830184610199565b92915050565b600060208201905061020260008301846101a8565b92915050565b60006102138261021a565b9050919050565b600073ffffffffffffffffffffffffffffffffffffffff82169050919050565b60006102458261024c565b9050919050565b60006102578261021a565b9050919050565b600061026982610270565b9050919050565b600061027b8261021a565b905091905056fe608060405260006003553480156200001657600080fd5b506040518060200160405280600081525062000038816200003f60201b60201c565b5062000170565b8060029080519060200190620000579291906200005b565b5050565b82805462000069906200010b565b90600052602060002090601f0160209004810192826200008d5760008555620000d9565b82601f10620000a857805160ff1916838001178555620000d9565b82800160010185558215620000d9579182015b82811115620000d8578251825591602001919060010190620000bb565b5b509050620000e89190620000ec565b5090565b5b8082111562000107576000816000905550600101620000ed565b5090565b600060028204905060018216806200012457607f821691505b602082108114156200013b576200013a62000141565b5b50919050565b7f4e487b7100000000000000000000000000000000000000000000000000000000600052602260045260246000fd5b612b0f80620001806000396000f3fe608060405234801561001057600080fd5b506004361061009d5760003560e01c80634e1273f4116100665780634e1273f41461016c578063a22cb4651461019c578063d0def521146101b8578063e985e9c5146101d4578063f242432a146102045761009d565b8062fdd58e146100a257806301ffc9a7146100d25780630e89341c146101025780631c75cfb4146101325780632eb2c2d614610150575b600080fd5b6100bc60048036038101906100b79190611be9565b610220565b6040516100c99190612269565b60405180910390f35b6100ec60048036038101906100e79190611c91565b6102e9565b6040516100f991906120cc565b60405180910390f35b61011c60048036038101906101179190611ce3565b6103cb565b60405161012991906120e7565b60405180910390f35b61013a61045f565b6040516101479190612269565b60405180910390f35b61016a60048036038101906101659190611a0b565b610465565b005b61018660048036038101906101819190611c25565b610506565b6040516101939190612073565b60405180910390f35b6101b660048036038101906101b19190611b59565b6106b7565b005b6101d260048036038101906101cd9190611b95565b6106cd565b005b6101ee60048036038101906101e991906119cf565b610731565b6040516101fb91906120cc565b60405180910390f35b61021e60048036038101906102199190611aca565b6107c5565b005b60008073ffffffffffffffffffffffffffffffffffffffff168373ffffffffffffffffffffffffffffffffffffffff161415610291576040517f08c379a000000000000000000000000000000000000000000000000000000000815260040161028890612149565b60405180910390fd5b60008083815260200190815260200160002060008473ffffffffffffffffffffffffffffffffffffffff1673ffffffffffffffffffffffffffffffffffffffff16815260200190815260200160002054905092915050565b60007fd9b67a26000000000000000000000000000000000000000000000000000000007bffffffffffffffffffffffffffffffffffffffffffffffffffffffff1916827bffffffffffffffffffffffffffffffffffffffffffffffffffffffff191614806103b457507f0e89341c000000000000000000000000000000000000000000000000000000007bffffffffffffffffffffffffffffffffffffffffffffffffffffffff1916827bffffffffffffffffffffffffffffffffffffffffffffffffffffffff1916145b806103c457506103c382610866565b5b9050919050565b6060600280546103da90612509565b80601f016020809104026020016040519081016040528092919081815260200182805461040690612509565b80156104535780601f1061042857610100808354040283529160200191610453565b820191906000526020600020905b81548152906001019060200180831161043657829003601f168201915b50505050509050919050565b60035481565b61046d6108d0565b73ffffffffffffffffffffffffffffffffffffffff168573ffffffffffffffffffffffffffffffffffffffff1614806104b357506104b2856104ad6108d0565b610731565b5b6104f2576040517f08c379a00000000000000000000000000000000000000000000000000000000081526004016104e9906121a9565b60405180910390fd5b6104ff85858585856108d8565b5050505050565b6060815183511461054c576040517f08c379a000000000000000000000000000000000000000000000000000000000815260040161054390612209565b60405180910390fd5b6000835167ffffffffffffffff81111561058f577f4e487b7100000000000000000000000000000000000000000000000000000000600052604160045260246000fd5b6040519080825280602002602001820160405280156105bd5781602001602082028036833780820191505090505b50905060005b84518110156106ac57610656858281518110610608577f4e487b7100000000000000000000000000000000000000000000000000000000600052603260045260246000fd5b6020026020010151858381518110610649577f4e487b7100000000000000000000000000000000000000000000000000000000600052603260045260246000fd5b6020026020010151610220565b82828151811061068f577f4e487b7100000000000000000000000000000000000000000000000000000000600052603260045260246000fd5b602002602001018181525050806106a59061256c565b90506105c3565b508091505092915050565b6106c96106c26108d0565b8383610c46565b5050565b8060046000600354815260200190815260200160002090805190602001906106f69291906116c7565b5061071582600354600160405180602001604052806000815250610db3565b600360008154809291906107289061256c565b91905055505050565b6000600160008473ffffffffffffffffffffffffffffffffffffffff1673ffffffffffffffffffffffffffffffffffffffff16815260200190815260200160002060008373ffffffffffffffffffffffffffffffffffffffff1673ffffffffffffffffffffffffffffffffffffffff16815260200190815260200160002060009054906101000a900460ff16905092915050565b6107cd6108d0565b73ffffffffffffffffffffffffffffffffffffffff168573ffffffffffffffffffffffffffffffffffffffff16148061081357506108128561080d6108d0565b610731565b5b610852576040517f08c379a000000000000000000000000000000000000000000000000000000000815260040161084990612169565b60405180910390fd5b61085f8585858585610f64565b5050505050565b60007f01ffc9a7000000000000000000000000000000000000000000000000000000007bffffffffffffffffffffffffffffffffffffffffffffffffffffffff1916827bffffffffffffffffffffffffffffffffffffffffffffffffffffffff1916149050919050565b600033905090565b815183511461091c576040517f08c379a000000000000000000000000000000000000000000000000000000000815260040161091390612229565b60405180910390fd5b600073ffffffffffffffffffffffffffffffffffffffff168473ffffffffffffffffffffffffffffffffffffffff16141561098c576040517f08c379a000000000000000000000000000000000000000000000000000000000815260040161098390612189565b60405180910390fd5b60006109966108d0565b90506109a6818787878787611200565b60005b8451811015610ba35760008582815181106109ed577f4e487b7100000000000000000000000000000000000000000000000000000000600052603260045260246000fd5b602002602001015190506000858381518110610a32577f4e487b7100000000000000000000000000000000000000000000000000000000600052603260045260246000fd5b60200260200101519050600080600084815260200190815260200160002060008b73ffffffffffffffffffffffffffffffffffffffff1673ffffffffffffffffffffffffffffffffffffffff16815260200190815260200160002054905081811015610ad3576040517f08c379a0000000000000000000000000000000000000000000000000000000008152600401610aca906121c9565b60405180910390fd5b81810360008085815260200190815260200160002060008c73ffffffffffffffffffffffffffffffffffffffff1673ffffffffffffffffffffffffffffffffffffffff168152602001908152602001600020819055508160008085815260200190815260200160002060008b73ffffffffffffffffffffffffffffffffffffffff1673ffffffffffffffffffffffffffffffffffffffff1681526020019081526020016000206000828254610b8891906123fd565b9250508190555050505080610b9c9061256c565b90506109a9565b508473ffffffffffffffffffffffffffffffffffffffff168673ffffffffffffffffffffffffffffffffffffffff168273ffffffffffffffffffffffffffffffffffffffff167f4a39dc06d4c0dbc64b70af90fd698a233a518aa5d07e595d983b8c0526c8f7fb8787604051610c1a929190612095565b60405180910390a4610c30818787878787611208565b610c3e818787878787611210565b505050505050565b8173ffffffffffffffffffffffffffffffffffffffff168373ffffffffffffffffffffffffffffffffffffffff161415610cb5576040517f08c379a0000000000000000000000000000000000000000000000000000000008152600401610cac906121e9565b60405180910390fd5b80600160008573ffffffffffffffffffffffffffffffffffffffff1673ffffffffffffffffffffffffffffffffffffffff16815260200190815260200160002060008473ffffffffffffffffffffffffffffffffffffffff1673ffffffffffffffffffffffffffffffffffffffff16815260200190815260200160002060006101000a81548160ff0219169083151502179055508173ffffffffffffffffffffffffffffffffffffffff168373ffffffffffffffffffffffffffffffffffffffff167f17307eab39ab6107e8899845ad3d59bd9653f200f220920489ca2b5937696c3183604051610da691906120cc565b60405180910390a3505050565b600073ffffffffffffffffffffffffffffffffffffffff168473ffffffffffffffffffffffffffffffffffffffff161415610e23576040517f08c379a0000000000000000000000000000000000000000000000000000000008152600401610e1a90612249565b60405180910390fd5b6000610e2d6108d0565b90506000610e3a856113f7565b90506000610e47856113f7565b9050610e5883600089858589611200565b8460008088815260200190815260200160002060008973ffffffffffffffffffffffffffffffffffffffff1673ffffffffffffffffffffffffffffffffffffffff1681526020019081526020016000206000828254610eb791906123fd565b925050819055508673ffffffffffffffffffffffffffffffffffffffff16600073ffffffffffffffffffffffffffffffffffffffff168473ffffffffffffffffffffffffffffffffffffffff167fc3d58168c5ae7397731d063d5bbf3d657854427343f4c083240f7aacaa2d0f628989604051610f35929190612284565b60405180910390a4610f4c83600089858589611208565b610f5b836000898989896114bd565b50505050505050565b600073ffffffffffffffffffffffffffffffffffffffff168473ffffffffffffffffffffffffffffffffffffffff161415610fd4576040517f08c379a0000000000000000000000000000000000000000000000000000000008152600401610fcb90612189565b60405180910390fd5b6000610fde6108d0565b90506000610feb856113f7565b90506000610ff8856113f7565b9050611008838989858589611200565b600080600088815260200190815260200160002060008a73ffffffffffffffffffffffffffffffffffffffff1673ffffffffffffffffffffffffffffffffffffffff1681526020019081526020016000205490508581101561109f576040517f08c379a0000000000000000000000000000000000000000000000000000000008152600401611096906121c9565b60405180910390fd5b85810360008089815260200190815260200160002060008b73ffffffffffffffffffffffffffffffffffffffff1673ffffffffffffffffffffffffffffffffffffffff168152602001908152602001600020819055508560008089815260200190815260200160002060008a73ffffffffffffffffffffffffffffffffffffffff1673ffffffffffffffffffffffffffffffffffffffff168152602001908152602001600020600082825461115491906123fd565b925050819055508773ffffffffffffffffffffffffffffffffffffffff168973ffffffffffffffffffffffffffffffffffffffff168573ffffffffffffffffffffffffffffffffffffffff167fc3d58168c5ae7397731d063d5bbf3d657854427343f4c083240f7aacaa2d0f628a8a6040516111d1929190612284565b60405180910390a46111e7848a8a86868a611208565b6111f5848a8a8a8a8a6114bd565b505050505050505050565b505050505050565b505050505050565b61122f8473ffffffffffffffffffffffffffffffffffffffff166116a4565b156113ef578373ffffffffffffffffffffffffffffffffffffffff1663bc197c8187878686866040518663ffffffff1660e01b8152600401611275959493929190611fb1565b602060405180830381600087803b15801561128f57600080fd5b505af19250505080156112c057506040513d601f19601f820116820180604052508101906112bd9190611cba565b60015b611366576112cc612642565b806308c379a0141561132957506112e16129e7565b806112ec575061132b565b806040517f08c379a000000000000000000000000000000000000000000000000000000000815260040161132091906120e7565b60405180910390fd5b505b6040517f08c379a000000000000000000000000000000000000000000000000000000000815260040161135d90612109565b60405180910390fd5b63bc197c8160e01b7bffffffffffffffffffffffffffffffffffffffffffffffffffffffff1916817bffffffffffffffffffffffffffffffffffffffffffffffffffffffff1916146113ed576040517f08c379a00000000000000000000000000000000000000000000000000000000081526004016113e490612129565b60405180910390fd5b505b505050505050565b60606000600167ffffffffffffffff81111561143c577f4e487b7100000000000000000000000000000000000000000000000000000000600052604160045260246000fd5b60405190808252806020026020018201604052801561146a5781602001602082028036833780820191505090505b50905082816000815181106114a8577f4e487b7100000000000000000000000000000000000000000000000000000000600052603260045260246000fd5b60200260200101818152505080915050919050565b6114dc8473ffffffffffffffffffffffffffffffffffffffff166116a4565b1561169c578373ffffffffffffffffffffffffffffffffffffffff1663f23a6e6187878686866040518663ffffffff1660e01b8152600401611522959493929190612019565b602060405180830381600087803b15801561153c57600080fd5b505af192505050801561156d57506040513d601f19601f8201168201806040525081019061156a9190611cba565b60015b61161357611579612642565b806308c379a014156115d6575061158e6129e7565b8061159957506115d8565b806040517f08c379a00000000000000000000000000000000000000000000000000000000081526004016115cd91906120e7565b60405180910390fd5b505b6040517f08c379a000000000000000000000000000000000000000000000000000000000815260040161160a90612109565b60405180910390fd5b63f23a6e6160e01b7bffffffffffffffffffffffffffffffffffffffffffffffffffffffff1916817bffffffffffffffffffffffffffffffffffffffffffffffffffffffff19161461169a576040517f08c379a000000000000000000000000000000000000000000000000000000000815260040161169190612129565b60405180910390fd5b505b505050505050565b6000808273ffffffffffffffffffffffffffffffffffffffff163b119050919050565b8280546116d390612509565b90600052602060002090601f0160209004810192826116f5576000855561173c565b82601f1061170e57805160ff191683800117855561173c565b8280016001018555821561173c579182015b8281111561173b578251825591602001919060010190611720565b5b509050611749919061174d565b5090565b5b8082111561176657600081600090555060010161174e565b5090565b600061177d611778846122d2565b6122ad565b9050808382526020820190508285602086028201111561179c57600080fd5b60005b858110156117cc57816117b288826118be565b84526020840193506020830192505060018101905061179f565b5050509392505050565b60006117e96117e4846122fe565b6122ad565b9050808382526020820190508285602086028201111561180857600080fd5b60005b85811015611838578161181e88826119ba565b84526020840193506020830192505060018101905061180b565b5050509392505050565b60006118556118508461232a565b6122ad565b90508281526020810184848401111561186d57600080fd5b6118788482856124c7565b509392505050565b600061189361188e8461235b565b6122ad565b9050828152602081018484840111156118ab57600080fd5b6118b68482856124c7565b509392505050565b6000813590506118cd81612a7d565b92915050565b600082601f8301126118e457600080fd5b81356118f484826020860161176a565b91505092915050565b600082601f83011261190e57600080fd5b813561191e8482602086016117d6565b91505092915050565b60008135905061193681612a94565b92915050565b60008135905061194b81612aab565b92915050565b60008151905061196081612aab565b92915050565b600082601f83011261197757600080fd5b8135611987848260208601611842565b91505092915050565b600082601f8301126119a157600080fd5b81356119b1848260208601611880565b91505092915050565b6000813590506119c981612ac2565b92915050565b600080604083850312156119e257600080fd5b60006119f0858286016118be565b9250506020611a01858286016118be565b9150509250929050565b600080600080600060a08688031215611a2357600080fd5b6000611a31888289016118be565b9550506020611a42888289016118be565b945050604086013567ffffffffffffffff811115611a5f57600080fd5b611a6b888289016118fd565b935050606086013567ffffffffffffffff811115611a8857600080fd5b611a94888289016118fd565b925050608086013567ffffffffffffffff811115611ab157600080fd5b611abd88828901611966565b9150509295509295909350565b600080600080600060a08688031215611ae257600080fd5b6000611af0888289016118be565b9550506020611b01888289016118be565b9450506040611b12888289016119ba565b9350506060611b23888289016119ba565b925050608086013567ffffffffffffffff811115611b4057600080fd5b611b4c88828901611966565b9150509295509295909350565b60008060408385031215611b6c57600080fd5b6000611b7a858286016118be565b9250506020611b8b85828601611927565b9150509250929050565b60008060408385031215611ba857600080fd5b6000611bb6858286016118be565b925050602083013567ffffffffffffffff811115611bd357600080fd5b611bdf85828601611990565b9150509250929050565b60008060408385031215611bfc57600080fd5b6000611c0a858286016118be565b9250506020611c1b858286016119ba565b9150509250929050565b60008060408385031215611c3857600080fd5b600083013567ffffffffffffffff811115611c5257600080fd5b611c5e858286016118d3565b925050602083013567ffffffffffffffff811115611c7b57600080fd5b611c87858286016118fd565b9150509250929050565b600060208284031215611ca357600080fd5b6000611cb18482850161193c565b91505092915050565b600060208284031215611ccc57600080fd5b6000611cda84828501611951565b91505092915050565b600060208284031215611cf557600080fd5b6000611d03848285016119ba565b91505092915050565b6000611d188383611f93565b60208301905092915050565b611d2d81612453565b82525050565b6000611d3e8261239c565b611d4881856123ca565b9350611d538361238c565b8060005b83811015611d84578151611d6b8882611d0c565b9750611d76836123bd565b925050600181019050611d57565b5085935050505092915050565b611d9a81612465565b82525050565b6000611dab826123a7565b611db581856123db565b9350611dc58185602086016124d6565b611dce81612664565b840191505092915050565b6000611de4826123b2565b611dee81856123ec565b9350611dfe8185602086016124d6565b611e0781612664565b840191505092915050565b6000611e1f6034836123ec565b9150611e2a82612682565b604082019050919050565b6000611e426028836123ec565b9150611e4d826126d1565b604082019050919050565b6000611e65602b836123ec565b9150611e7082612720565b604082019050919050565b6000611e886029836123ec565b9150611e938261276f565b604082019050919050565b6000611eab6025836123ec565b9150611eb6826127be565b604082019050919050565b6000611ece6032836123ec565b9150611ed98261280d565b604082019050919050565b6000611ef1602a836123ec565b9150611efc8261285c565b604082019050919050565b6000611f146029836123ec565b9150611f1f826128ab565b604082019050919050565b6000611f376029836123ec565b9150611f42826128fa565b604082019050919050565b6000611f5a6028836123ec565b9150611f6582612949565b604082019050919050565b6000611f7d6021836123ec565b9150611f8882612998565b604082019050919050565b611f9c816124bd565b82525050565b611fab816124bd565b82525050565b600060a082019050611fc66000830188611d24565b611fd36020830187611d24565b8181036040830152611fe58186611d33565b90508181036060830152611ff98185611d33565b9050818103608083015261200d8184611da0565b90509695505050505050565b600060a08201905061202e6000830188611d24565b61203b6020830187611d24565b6120486040830186611fa2565b6120556060830185611fa2565b81810360808301526120678184611da0565b90509695505050505050565b6000602082019050818103600083015261208d8184611d33565b905092915050565b600060408201905081810360008301526120af8185611d33565b905081810360208301526120c38184611d33565b90509392505050565b60006020820190506120e16000830184611d91565b92915050565b600060208201905081810360008301526121018184611dd9565b905092915050565b6000602082019050818103600083015261212281611e12565b9050919050565b6000602082019050818103600083015261214281611e35565b9050919050565b6000602082019050818103600083015261216281611e58565b9050919050565b6000602082019050818103600083015261218281611e7b565b9050919050565b600060208201905081810360008301526121a281611e9e565b9050919050565b600060208201905081810360008301526121c281611ec1565b9050919050565b600060208201905081810360008301526121e281611ee4565b9050919050565b6000602082019050818103600083015261220281611f07565b9050919050565b6000602082019050818103600083015261222281611f2a565b9050919050565b6000602082019050818103600083015261224281611f4d565b9050919050565b6000602082019050818103600083015261226281611f70565b9050919050565b600060208201905061227e6000830184611fa2565b92915050565b60006040820190506122996000830185611fa2565b6122a66020830184611fa2565b9392505050565b60006122b76122c8565b90506122c3828261253b565b919050565b6000604051905090565b600067ffffffffffffffff8211156122ed576122ec612613565b5b602082029050602081019050919050565b600067ffffffffffffffff82111561231957612318612613565b5b602082029050602081019050919050565b600067ffffffffffffffff82111561234557612344612613565b5b61234e82612664565b9050602081019050919050565b600067ffffffffffffffff82111561237657612375612613565b5b61237f82612664565b9050602081019050919050565b6000819050602082019050919050565b600081519050919050565b600081519050919050565b600081519050919050565b6000602082019050919050565b600082825260208201905092915050565b600082825260208201905092915050565b600082825260208201905092915050565b6000612408826124bd565b9150612413836124bd565b9250827fffffffffffffffffffffffffffffffffffffffffffffffffffffffffffffffff03821115612448576124476125b5565b5b828201905092915050565b600061245e8261249d565b9050919050565b60008115159050919050565b60007fffffffff0000000000000000000000000000000000000000000000000000000082169050919050565b600073ffffffffffffffffffffffffffffffffffffffff82169050919050565b6000819050919050565b82818337600083830152505050565b60005b838110156124f45780820151818401526020810190506124d9565b83811115612503576000848401525b50505050565b6000600282049050600182168061252157607f821691505b60208210811415612535576125346125e4565b5b50919050565b61254482612664565b810181811067ffffffffffffffff8211171561256357612562612613565b5b80604052505050565b6000612577826124bd565b91507fffffffffffffffffffffffffffffffffffffffffffffffffffffffffffffffff8214156125aa576125a96125b5565b5b600182019050919050565b7f4e487b7100000000000000000000000000000000000000000000000000000000600052601160045260246000fd5b7f4e487b7100000000000000000000000000000000000000000000000000000000600052602260045260246000fd5b7f4e487b7100000000000000000000000000000000000000000000000000000000600052604160045260246000fd5b600060033d11156126615760046000803e61265e600051612675565b90505b90565b6000601f19601f8301169050919050565b60008160e01c9050919050565b7f455243313135353a207472616e7366657220746f206e6f6e204552433131353560008201527f526563656976657220696d706c656d656e746572000000000000000000000000602082015250565b7f455243313135353a204552433131353552656365697665722072656a6563746560008201527f6420746f6b656e73000000000000000000000000000000000000000000000000602082015250565b7f455243313135353a2062616c616e636520717565727920666f7220746865207a60008201527f65726f2061646472657373000000000000000000000000000000000000000000602082015250565b7f455243313135353a2063616c6c6572206973206e6f74206f776e6572206e6f7260008201527f20617070726f7665640000000000000000000000000000000000000000000000602082015250565b7f455243313135353a207472616e7366657220746f20746865207a65726f20616460008201527f6472657373000000000000000000000000000000000000000000000000000000602082015250565b7f455243313135353a207472616e736665722063616c6c6572206973206e6f742060008201527f6f776e6572206e6f7220617070726f7665640000000000000000000000000000602082015250565b7f455243313135353a20696e73756666696369656e742062616c616e636520666f60008201527f72207472616e7366657200000000000000000000000000000000000000000000602082015250565b7f455243313135353a2073657474696e6720617070726f76616c2073746174757360008201527f20666f722073656c660000000000000000000000000000000000000000000000602082015250565b7f455243313135353a206163636f756e747320616e6420696473206c656e67746860008201527f206d69736d617463680000000000000000000000000000000000000000000000602082015250565b7f455243313135353a2069647320616e6420616d6f756e7473206c656e6774682060008201527f6d69736d61746368000000000000000000000000000000000000000000000000602082015250565b7f455243313135353a206d696e7420746f20746865207a65726f2061646472657360008201527f7300000000000000000000000000000000000000000000000000000000000000602082015250565b600060443d10156129f757612a7a565b6129ff6122c8565b60043d036004823e80513d602482011167ffffffffffffffff82111715612a27575050612a7a565b808201805167ffffffffffffffff811115612a455750505050612a7a565b80602083010160043d038501811115612a62575050505050612a7a565b612a718260200185018661253b565b82955050505050505b90565b612a8681612453565b8114612a9157600080fd5b50565b612a9d81612465565b8114612aa857600080fd5b50565b612ab481612471565b8114612abf57600080fd5b50565b612acb816124bd565b8114612ad657600080fd5b5056fea26469706673582212201b083c91219f39741c668d0d50bdf86d8409090c0d3ab2c423eda8699776861e64736f6c63430008030033a2646970667358221220bdb387509511921e2b254ca26572d83fc67b873b0cb95b0eb73fc8fba3ad4a0e64736f6c63430008030033",
  "linkReferences": {},
  "deployedLinkReferences": {}
}