{
  "_format": "hh-sol-artifact-1",
  "contractName": "NFTMarketplace",
  "sourceName": "contracts/NFTMarketplace.sol",
  "abi": [
    {
      "inputs": [],
      "stateMutability": "nonpayable",
      "type": "constructor"
    },
    {
      "inputs": [],
      "name": "age",
      "outputs": [
        {
          "internalType": "uint256",
          "name": "",
          "type": "uint256"
        }
      ],
      "stateMutability": "view",
      "type": "function"
    },
    {
      "inputs": [
        {
          "internalType": "string",
          "name": "_name",
          "type": "string"
        },
        {
          "internalType": "string",
          "name": "_symbol",
          "type": "string"
        }
      ],
      "name": "createToken",
      "outputs": [
        {
          "internalType": "address",
          "name": "_contractAddr",
          "type": "address"
        }
      ],
      "stateMutability": "nonpayable",
      "type": "function"
    },
    {
      "inputs": [],
      "name": "name",
      "outputs": [
        {
          "internalType": "string",
          "name": "",
          "type": "string"
        }
      ],
      "stateMutability": "view",
      "type": "function"
    },
    {
      "inputs": [],
      "name": "nft",
      "outputs": [
        {
          "internalType": "contract NFT",
          "name": "",
          "type": "address"
        }
      ],
      "stateMutability": "view",
      "type": "function"
    }
  ],
  "bytecode": "0x608060405234801561001057600080fd5b50614602806100206000396000f3fe60806040523480156200001157600080fd5b5060043610620000525760003560e01c806306fdde031462000057578063262a9dff14620000795780632f2f2d56146200009b57806347ccca0214620000d1575b600080fd5b62000061620000f3565b604051620000709190620003fe565b60405180910390f35b6200008362000189565b6040516200009291906200045d565b60405180910390f35b620000b96004803603810190620000b39190620002dd565b6200018f565b604051620000c89190620003c4565b60405180910390f35b620000db62000237565b604051620000ea9190620003e1565b60405180910390f35b600080546200010290620005a0565b80601f01602080910402602001604051908101604052809291908181526020018280546200013090620005a0565b8015620001815780601f10620001555761010080835404028352916020019162000181565b820191906000526020600020905b8154815290600101906020018083116200016357829003601f168201915b505050505081565b60015481565b60008282604051620001a1906200025d565b620001ae92919062000422565b604051809103906000f080158015620001cb573d6000803e3d6000fd5b50600260006101000a81548173ffffffffffffffffffffffffffffffffffffffff021916908373ffffffffffffffffffffffffffffffffffffffff160217905550600260009054906101000a900473ffffffffffffffffffffffffffffffffffffffff16905092915050565b600260009054906101000a900473ffffffffffffffffffffffffffffffffffffffff1681565b613f51806200067c83390190565b6000620002826200027c84620004a3565b6200047a565b9050828152602081018484840111156200029b57600080fd5b620002a88482856200055b565b509392505050565b600082601f830112620002c257600080fd5b8135620002d48482602086016200026b565b91505092915050565b60008060408385031215620002f157600080fd5b600083013567ffffffffffffffff8111156200030c57600080fd5b6200031a85828601620002b0565b925050602083013567ffffffffffffffff8111156200033857600080fd5b6200034685828601620002b0565b9150509250929050565b6200035b81620004f5565b82525050565b6200036c8162000533565b82525050565b60006200037f82620004d9565b6200038b8185620004e4565b93506200039d8185602086016200056a565b620003a8816200066a565b840191505092915050565b620003be8162000529565b82525050565b6000602082019050620003db600083018462000350565b92915050565b6000602082019050620003f8600083018462000361565b92915050565b600060208201905081810360008301526200041a818462000372565b905092915050565b600060408201905081810360008301526200043e818562000372565b9050818103602083015262000454818462000372565b90509392505050565b6000602082019050620004746000830184620003b3565b92915050565b60006200048662000499565b9050620004948282620005d6565b919050565b6000604051905090565b600067ffffffffffffffff821115620004c157620004c06200063b565b5b620004cc826200066a565b9050602081019050919050565b600081519050919050565b600082825260208201905092915050565b6000620005028262000509565b9050919050565b600073ffffffffffffffffffffffffffffffffffffffff82169050919050565b6000819050919050565b6000620005408262000547565b9050919050565b6000620005548262000509565b9050919050565b82818337600083830152505050565b60005b838110156200058a5780820151818401526020810190506200056d565b838111156200059a576000848401525b50505050565b60006002820490506001821680620005b957607f821691505b60208210811415620005d057620005cf6200060c565b5b50919050565b620005e1826200066a565b810181811067ffffffffffffffff821117156200060357620006026200063b565b5b80604052505050565b7f4e487b7100000000000000000000000000000000000000000000000000000000600052602260045260246000fd5b7f4e487b7100000000000000000000000000000000000000000000000000000000600052604160045260246000fd5b6000601f19601f830116905091905056fe608060405260405180602001604052806000815250600b90805190602001906200002b929190620001b3565b5060405180602001604052806000815250600c908051906020019062000053929190620001b3565b503480156200006157600080fd5b5060405162003f5138038062003f518339818101604052810190620000879190620002d5565b81818160009080519060200190620000a1929190620001b3565b508060019080519060200190620000ba929190620001b3565b505050620000dd620000d1620000e560201b60201c565b620000ed60201b60201c565b5050620004b8565b600033905090565b6000600a60009054906101000a900473ffffffffffffffffffffffffffffffffffffffff16905081600a60006101000a81548173ffffffffffffffffffffffffffffffffffffffff021916908373ffffffffffffffffffffffffffffffffffffffff1602179055508173ffffffffffffffffffffffffffffffffffffffff168173ffffffffffffffffffffffffffffffffffffffff167f8be0079c531659141344cd1fd0a4f28419497f9722a3daafe3b4186f6b6457e060405160405180910390a35050565b828054620001c190620003dd565b90600052602060002090601f016020900481019282620001e5576000855562000231565b82601f106200020057805160ff191683800117855562000231565b8280016001018555821562000231579182015b828111156200023057825182559160200191906001019062000213565b5b50905062000240919062000244565b5090565b5b808211156200025f57600081600090555060010162000245565b5090565b60006200027a620002748462000371565b62000348565b9050828152602081018484840111156200029357600080fd5b620002a0848285620003a7565b509392505050565b600082601f830112620002ba57600080fd5b8151620002cc84826020860162000263565b91505092915050565b60008060408385031215620002e957600080fd5b600083015167ffffffffffffffff8111156200030457600080fd5b6200031285828601620002a8565b925050602083015167ffffffffffffffff8111156200033057600080fd5b6200033e85828601620002a8565b9150509250929050565b60006200035462000367565b905062000362828262000413565b919050565b6000604051905090565b600067ffffffffffffffff8211156200038f576200038e62000478565b5b6200039a82620004a7565b9050602081019050919050565b60005b83811015620003c7578082015181840152602081019050620003aa565b83811115620003d7576000848401525b50505050565b60006002820490506001821680620003f657607f821691505b602082108114156200040d576200040c62000449565b5b50919050565b6200041e82620004a7565b810181811067ffffffffffffffff8211171562000440576200043f62000478565b5b80604052505050565b7f4e487b7100000000000000000000000000000000000000000000000000000000600052602260045260246000fd5b7f4e487b7100000000000000000000000000000000000000000000000000000000600052604160045260246000fd5b6000601f19601f8301169050919050565b613a8980620004c86000396000f3fe60806040526004361061014b5760003560e01c80636352211e116100b6578063a22cb4651161006f578063a22cb4651461048a578063b88d4fde146104b3578063c6682862146104dc578063c87b56dd14610507578063e985e9c514610544578063f2fde38b146105815761014b565b80636352211e146103785780636c0360eb146103b557806370a08231146103e0578063715018a61461041d5780638da5cb5b1461043457806395d89b411461045f5761014b565b80632f745c59116101085780632f745c59146102725780633ccfd60b146102af57806340c10f19146102b957806342842e0e146102d5578063438b6300146102fe5780634f6ccce71461033b5761014b565b806301ffc9a71461015057806306fdde031461018d578063081812fc146101b8578063095ea7b3146101f557806318160ddd1461021e57806323b872dd14610249575b600080fd5b34801561015c57600080fd5b506101776004803603810190610172919061287c565b6105aa565b6040516101849190612e1e565b60405180910390f35b34801561019957600080fd5b506101a2610624565b6040516101af9190612e39565b60405180910390f35b3480156101c457600080fd5b506101df60048036038101906101da91906128ce565b6106b6565b6040516101ec9190612d95565b60405180910390f35b34801561020157600080fd5b5061021c60048036038101906102179190612840565b61073b565b005b34801561022a57600080fd5b50610233610853565b60405161024091906130bb565b60405180910390f35b34801561025557600080fd5b50610270600480360381019061026b919061273a565b610860565b005b34801561027e57600080fd5b5061029960048036038101906102949190612840565b6108c0565b6040516102a691906130bb565b60405180910390f35b6102b7610965565b005b6102d360048036038101906102ce9190612840565b610a21565b005b3480156102e157600080fd5b506102fc60048036038101906102f7919061273a565b610aac565b005b34801561030a57600080fd5b50610325600480360381019061032091906126d5565b610acc565b6040516103329190612dfc565b60405180910390f35b34801561034757600080fd5b50610362600480360381019061035d91906128ce565b610bc6565b60405161036f91906130bb565b60405180910390f35b34801561038457600080fd5b5061039f600480360381019061039a91906128ce565b610c5d565b6040516103ac9190612d95565b60405180910390f35b3480156103c157600080fd5b506103ca610d0f565b6040516103d79190612e39565b60405180910390f35b3480156103ec57600080fd5b50610407600480360381019061040291906126d5565b610d9d565b60405161041491906130bb565b60405180910390f35b34801561042957600080fd5b50610432610e55565b005b34801561044057600080fd5b50610449610edd565b6040516104569190612d95565b60405180910390f35b34801561046b57600080fd5b50610474610f07565b6040516104819190612e39565b60405180910390f35b34801561049657600080fd5b506104b160048036038101906104ac9190612804565b610f99565b005b3480156104bf57600080fd5b506104da60048036038101906104d59190612789565b610faf565b005b3480156104e857600080fd5b506104f1611011565b6040516104fe9190612e39565b60405180910390f35b34801561051357600080fd5b5061052e600480360381019061052991906128ce565b61109f565b60405161053b9190612e39565b60405180910390f35b34801561055057600080fd5b5061056b600480360381019061056691906126fe565b611149565b6040516105789190612e1e565b60405180910390f35b34801561058d57600080fd5b506105a860048036038101906105a391906126d5565b6111dd565b005b60007f780e9d63000000000000000000000000000000000000000000000000000000007bffffffffffffffffffffffffffffffffffffffffffffffffffffffff1916827bffffffffffffffffffffffffffffffffffffffffffffffffffffffff1916148061061d575061061c826112d5565b5b9050919050565b6060600080546106339061332e565b80601f016020809104026020016040519081016040528092919081815260200182805461065f9061332e565b80156106ac5780601f10610681576101008083540402835291602001916106ac565b820191906000526020600020905b81548152906001019060200180831161068f57829003601f168201915b5050505050905090565b60006106c1826113b7565b610700576040517f08c379a00000000000000000000000000000000000000000000000000000000081526004016106f79061301b565b60405180910390fd5b6004600083815260200190815260200160002060009054906101000a900473ffffffffffffffffffffffffffffffffffffffff169050919050565b600061074682610c5d565b90508073ffffffffffffffffffffffffffffffffffffffff168373ffffffffffffffffffffffffffffffffffffffff1614156107b7576040517f08c379a00000000000000000000000000000000000000000000000000000000081526004016107ae9061305b565b60405180910390fd5b8073ffffffffffffffffffffffffffffffffffffffff166107d6611423565b73ffffffffffffffffffffffffffffffffffffffff1614806108055750610804816107ff611423565b611149565b5b610844576040517f08c379a000000000000000000000000000000000000000000000000000000000815260040161083b90612f9b565b60405180910390fd5b61084e838361142b565b505050565b6000600880549050905090565b61087161086b611423565b826114e4565b6108b0576040517f08c379a00000000000000000000000000000000000000000000000000000000081526004016108a79061307b565b60405180910390fd5b6108bb8383836115c2565b505050565b60006108cb83610d9d565b821061090c576040517f08c379a000000000000000000000000000000000000000000000000000000000815260040161090390612e9b565b60405180910390fd5b600660008473ffffffffffffffffffffffffffffffffffffffff1673ffffffffffffffffffffffffffffffffffffffff168152602001908152602001600020600083815260200190815260200160002054905092915050565b61096d611423565b73ffffffffffffffffffffffffffffffffffffffff1661098b610edd565b73ffffffffffffffffffffffffffffffffffffffff16146109e1576040517f08c379a00000000000000000000000000000000000000000000000000000000081526004016109d89061303b565b60405180910390fd5b3373ffffffffffffffffffffffffffffffffffffffff166108fc479081150290604051600060405180830381858888f19350505050610a1f57600080fd5b565b6000610a2b610853565b905060008211610a70576040517f08c379a0000000000000000000000000000000000000000000000000000000008152600401610a6790612e7b565b60405180910390fd5b6000600190505b828111610aa657610a93848284610a8e91906131bd565b611829565b8080610a9e90613391565b915050610a77565b50505050565b610ac783838360405180602001604052806000815250610faf565b505050565b60606000610ad983610d9d565b905060008167ffffffffffffffff811115610b1d577f4e487b7100000000000000000000000000000000000000000000000000000000600052604160045260246000fd5b604051908082528060200260200182016040528015610b4b5781602001602082028036833780820191505090505b50905060005b82811015610bbb57610b6385826108c0565b828281518110610b9c577f4e487b7100000000000000000000000000000000000000000000000000000000600052603260045260246000fd5b6020026020010181815250508080610bb390613391565b915050610b51565b508092505050919050565b6000610bd0610853565b8210610c11576040517f08c379a0000000000000000000000000000000000000000000000000000000008152600401610c089061309b565b60405180910390fd5b60088281548110610c4b577f4e487b7100000000000000000000000000000000000000000000000000000000600052603260045260246000fd5b90600052602060002001549050919050565b6000806002600084815260200190815260200160002060009054906101000a900473ffffffffffffffffffffffffffffffffffffffff169050600073ffffffffffffffffffffffffffffffffffffffff168173ffffffffffffffffffffffffffffffffffffffff161415610d06576040517f08c379a0000000000000000000000000000000000000000000000000000000008152600401610cfd90612fdb565b60405180910390fd5b80915050919050565b600b8054610d1c9061332e565b80601f0160208091040260200160405190810160405280929190818152602001828054610d489061332e565b8015610d955780601f10610d6a57610100808354040283529160200191610d95565b820191906000526020600020905b815481529060010190602001808311610d7857829003601f168201915b505050505081565b60008073ffffffffffffffffffffffffffffffffffffffff168273ffffffffffffffffffffffffffffffffffffffff161415610e0e576040517f08c379a0000000000000000000000000000000000000000000000000000000008152600401610e0590612fbb565b60405180910390fd5b600360008373ffffffffffffffffffffffffffffffffffffffff1673ffffffffffffffffffffffffffffffffffffffff168152602001908152602001600020549050919050565b610e5d611423565b73ffffffffffffffffffffffffffffffffffffffff16610e7b610edd565b73ffffffffffffffffffffffffffffffffffffffff1614610ed1576040517f08c379a0000000000000000000000000000000000000000000000000000000008152600401610ec89061303b565b60405180910390fd5b610edb6000611847565b565b6000600a60009054906101000a900473ffffffffffffffffffffffffffffffffffffffff16905090565b606060018054610f169061332e565b80601f0160208091040260200160405190810160405280929190818152602001828054610f429061332e565b8015610f8f5780601f10610f6457610100808354040283529160200191610f8f565b820191906000526020600020905b815481529060010190602001808311610f7257829003601f168201915b5050505050905090565b610fab610fa4611423565b838361190d565b5050565b610fc0610fba611423565b836114e4565b610fff576040517f08c379a0000000000000000000000000000000000000000000000000000000008152600401610ff69061307b565b60405180910390fd5b61100b84848484611a7a565b50505050565b600c805461101e9061332e565b80601f016020809104026020016040519081016040528092919081815260200182805461104a9061332e565b80156110975780601f1061106c57610100808354040283529160200191611097565b820191906000526020600020905b81548152906001019060200180831161107a57829003601f168201915b505050505081565b60606110aa826113b7565b6110e9576040517f08c379a00000000000000000000000000000000000000000000000000000000081526004016110e090612e5b565b60405180910390fd5b60006110f3611ad6565b905060008151116111135760405180602001604052806000815250611141565b8061111d84611b68565b600c60405160200161113193929190612d64565b6040516020818303038152906040525b915050919050565b6000600560008473ffffffffffffffffffffffffffffffffffffffff1673ffffffffffffffffffffffffffffffffffffffff16815260200190815260200160002060008373ffffffffffffffffffffffffffffffffffffffff1673ffffffffffffffffffffffffffffffffffffffff16815260200190815260200160002060009054906101000a900460ff16905092915050565b6111e5611423565b73ffffffffffffffffffffffffffffffffffffffff16611203610edd565b73ffffffffffffffffffffffffffffffffffffffff1614611259576040517f08c379a00000000000000000000000000000000000000000000000000000000081526004016112509061303b565b60405180910390fd5b600073ffffffffffffffffffffffffffffffffffffffff168173ffffffffffffffffffffffffffffffffffffffff1614156112c9576040517f08c379a00000000000000000000000000000000000000000000000000000000081526004016112c090612edb565b60405180910390fd5b6112d281611847565b50565b60007f80ac58cd000000000000000000000000000000000000000000000000000000007bffffffffffffffffffffffffffffffffffffffffffffffffffffffff1916827bffffffffffffffffffffffffffffffffffffffffffffffffffffffff191614806113a057507f5b5e139f000000000000000000000000000000000000000000000000000000007bffffffffffffffffffffffffffffffffffffffffffffffffffffffff1916827bffffffffffffffffffffffffffffffffffffffffffffffffffffffff1916145b806113b057506113af82611d15565b5b9050919050565b60008073ffffffffffffffffffffffffffffffffffffffff166002600084815260200190815260200160002060009054906101000a900473ffffffffffffffffffffffffffffffffffffffff1673ffffffffffffffffffffffffffffffffffffffff1614159050919050565b600033905090565b816004600083815260200190815260200160002060006101000a81548173ffffffffffffffffffffffffffffffffffffffff021916908373ffffffffffffffffffffffffffffffffffffffff160217905550808273ffffffffffffffffffffffffffffffffffffffff1661149e83610c5d565b73ffffffffffffffffffffffffffffffffffffffff167f8c5be1e5ebec7d5bd14f71427d1e84f3dd0314c0f7b2291e5b200ac8c7c3b92560405160405180910390a45050565b60006114ef826113b7565b61152e576040517f08c379a000000000000000000000000000000000000000000000000000000000815260040161152590612f7b565b60405180910390fd5b600061153983610c5d565b90508073ffffffffffffffffffffffffffffffffffffffff168473ffffffffffffffffffffffffffffffffffffffff16148061157b575061157a8185611149565b5b806115b957508373ffffffffffffffffffffffffffffffffffffffff166115a1846106b6565b73ffffffffffffffffffffffffffffffffffffffff16145b91505092915050565b8273ffffffffffffffffffffffffffffffffffffffff166115e282610c5d565b73ffffffffffffffffffffffffffffffffffffffff1614611638576040517f08c379a000000000000000000000000000000000000000000000000000000000815260040161162f90612efb565b60405180910390fd5b600073ffffffffffffffffffffffffffffffffffffffff168273ffffffffffffffffffffffffffffffffffffffff1614156116a8576040517f08c379a000000000000000000000000000000000000000000000000000000000815260040161169f90612f3b565b60405180910390fd5b6116b3838383611d7f565b6116be60008261142b565b6001600360008573ffffffffffffffffffffffffffffffffffffffff1673ffffffffffffffffffffffffffffffffffffffff168152602001908152602001600020600082825461170e9190613244565b925050819055506001600360008473ffffffffffffffffffffffffffffffffffffffff1673ffffffffffffffffffffffffffffffffffffffff168152602001908152602001600020600082825461176591906131bd565b92505081905550816002600083815260200190815260200160002060006101000a81548173ffffffffffffffffffffffffffffffffffffffff021916908373ffffffffffffffffffffffffffffffffffffffff160217905550808273ffffffffffffffffffffffffffffffffffffffff168473ffffffffffffffffffffffffffffffffffffffff167fddf252ad1be2c89b69c2b068fc378daa952ba7f163c4a11628f55a4df523b3ef60405160405180910390a4611824838383611e93565b505050565b611843828260405180602001604052806000815250611e98565b5050565b6000600a60009054906101000a900473ffffffffffffffffffffffffffffffffffffffff16905081600a60006101000a81548173ffffffffffffffffffffffffffffffffffffffff021916908373ffffffffffffffffffffffffffffffffffffffff1602179055508173ffffffffffffffffffffffffffffffffffffffff168173ffffffffffffffffffffffffffffffffffffffff167f8be0079c531659141344cd1fd0a4f28419497f9722a3daafe3b4186f6b6457e060405160405180910390a35050565b8173ffffffffffffffffffffffffffffffffffffffff168373ffffffffffffffffffffffffffffffffffffffff16141561197c576040517f08c379a000000000000000000000000000000000000000000000000000000000815260040161197390612f5b565b60405180910390fd5b80600560008573ffffffffffffffffffffffffffffffffffffffff1673ffffffffffffffffffffffffffffffffffffffff16815260200190815260200160002060008473ffffffffffffffffffffffffffffffffffffffff1673ffffffffffffffffffffffffffffffffffffffff16815260200190815260200160002060006101000a81548160ff0219169083151502179055508173ffffffffffffffffffffffffffffffffffffffff168373ffffffffffffffffffffffffffffffffffffffff167f17307eab39ab6107e8899845ad3d59bd9653f200f220920489ca2b5937696c3183604051611a6d9190612e1e565b60405180910390a3505050565b611a858484846115c2565b611a9184848484611ef3565b611ad0576040517f08c379a0000000000000000000000000000000000000000000000000000000008152600401611ac790612ebb565b60405180910390fd5b50505050565b6060600b8054611ae59061332e565b80601f0160208091040260200160405190810160405280929190818152602001828054611b119061332e565b8015611b5e5780601f10611b3357610100808354040283529160200191611b5e565b820191906000526020600020905b815481529060010190602001808311611b4157829003601f168201915b5050505050905090565b60606000821415611bb0576040518060400160405280600181526020017f30000000000000000000000000000000000000000000000000000000000000008152509050611d10565b600082905060005b60008214611be2578080611bcb90613391565b915050600a82611bdb9190613213565b9150611bb8565b60008167ffffffffffffffff811115611c24577f4e487b7100000000000000000000000000000000000000000000000000000000600052604160045260246000fd5b6040519080825280601f01601f191660200182016040528015611c565781602001600182028036833780820191505090505b5090505b60008514611d0957600182611c6f9190613244565b9150600a85611c7e91906133da565b6030611c8a91906131bd565b60f81b818381518110611cc6577f4e487b7100000000000000000000000000000000000000000000000000000000600052603260045260246000fd5b60200101907effffffffffffffffffffffffffffffffffffffffffffffffffffffffffffff1916908160001a905350600a85611d029190613213565b9450611c5a565b8093505050505b919050565b60007f01ffc9a7000000000000000000000000000000000000000000000000000000007bffffffffffffffffffffffffffffffffffffffffffffffffffffffff1916827bffffffffffffffffffffffffffffffffffffffffffffffffffffffff1916149050919050565b611d8a83838361208a565b600073ffffffffffffffffffffffffffffffffffffffff168373ffffffffffffffffffffffffffffffffffffffff161415611dcd57611dc88161208f565b611e0c565b8173ffffffffffffffffffffffffffffffffffffffff168373ffffffffffffffffffffffffffffffffffffffff1614611e0b57611e0a83826120d8565b5b5b600073ffffffffffffffffffffffffffffffffffffffff168273ffffffffffffffffffffffffffffffffffffffff161415611e4f57611e4a81612245565b611e8e565b8273ffffffffffffffffffffffffffffffffffffffff168273ffffffffffffffffffffffffffffffffffffffff1614611e8d57611e8c8282612388565b5b5b505050565b505050565b611ea28383612407565b611eaf6000848484611ef3565b611eee576040517f08c379a0000000000000000000000000000000000000000000000000000000008152600401611ee590612ebb565b60405180910390fd5b505050565b6000611f148473ffffffffffffffffffffffffffffffffffffffff166125e1565b1561207d578373ffffffffffffffffffffffffffffffffffffffff1663150b7a02611f3d611423565b8786866040518563ffffffff1660e01b8152600401611f5f9493929190612db0565b602060405180830381600087803b158015611f7957600080fd5b505af1925050508015611faa57506040513d601f19601f82011682018060405250810190611fa791906128a5565b60015b61202d573d8060008114611fda576040519150601f19603f3d011682016040523d82523d6000602084013e611fdf565b606091505b50600081511415612025576040517f08c379a000000000000000000000000000000000000000000000000000000000815260040161201c90612ebb565b60405180910390fd5b805181602001fd5b63150b7a0260e01b7bffffffffffffffffffffffffffffffffffffffffffffffffffffffff1916817bffffffffffffffffffffffffffffffffffffffffffffffffffffffff191614915050612082565b600190505b949350505050565b505050565b6008805490506009600083815260200190815260200160002081905550600881908060018154018082558091505060019003906000526020600020016000909190919091505550565b600060016120e584610d9d565b6120ef9190613244565b90506000600760008481526020019081526020016000205490508181146121d4576000600660008673ffffffffffffffffffffffffffffffffffffffff1673ffffffffffffffffffffffffffffffffffffffff168152602001908152602001600020600084815260200190815260200160002054905080600660008773ffffffffffffffffffffffffffffffffffffffff1673ffffffffffffffffffffffffffffffffffffffff168152602001908152602001600020600084815260200190815260200160002081905550816007600083815260200190815260200160002081905550505b6007600084815260200190815260200160002060009055600660008573ffffffffffffffffffffffffffffffffffffffff1673ffffffffffffffffffffffffffffffffffffffff16815260200190815260200160002060008381526020019081526020016000206000905550505050565b600060016008805490506122599190613244565b90506000600960008481526020019081526020016000205490506000600883815481106122af577f4e487b7100000000000000000000000000000000000000000000000000000000600052603260045260246000fd5b9060005260206000200154905080600883815481106122f7577f4e487b7100000000000000000000000000000000000000000000000000000000600052603260045260246000fd5b90600052602060002001819055508160096000838152602001908152602001600020819055506009600085815260200190815260200160002060009055600880548061236c577f4e487b7100000000000000000000000000000000000000000000000000000000600052603160045260246000fd5b6001900381819060005260206000200160009055905550505050565b600061239383610d9d565b905081600660008573ffffffffffffffffffffffffffffffffffffffff1673ffffffffffffffffffffffffffffffffffffffff168152602001908152602001600020600083815260200190815260200160002081905550806007600084815260200190815260200160002081905550505050565b600073ffffffffffffffffffffffffffffffffffffffff168273ffffffffffffffffffffffffffffffffffffffff161415612477576040517f08c379a000000000000000000000000000000000000000000000000000000000815260040161246e90612ffb565b60405180910390fd5b612480816113b7565b156124c0576040517f08c379a00000000000000000000000000000000000000000000000000000000081526004016124b790612f1b565b60405180910390fd5b6124cc60008383611d7f565b6001600360008473ffffffffffffffffffffffffffffffffffffffff1673ffffffffffffffffffffffffffffffffffffffff168152602001908152602001600020600082825461251c91906131bd565b92505081905550816002600083815260200190815260200160002060006101000a81548173ffffffffffffffffffffffffffffffffffffffff021916908373ffffffffffffffffffffffffffffffffffffffff160217905550808273ffffffffffffffffffffffffffffffffffffffff16600073ffffffffffffffffffffffffffffffffffffffff167fddf252ad1be2c89b69c2b068fc378daa952ba7f163c4a11628f55a4df523b3ef60405160405180910390a46125dd60008383611e93565b5050565b6000808273ffffffffffffffffffffffffffffffffffffffff163b119050919050565b6000612617612612846130fb565b6130d6565b90508281526020810184848401111561262f57600080fd5b61263a8482856132ec565b509392505050565b600081359050612651816139f7565b92915050565b60008135905061266681613a0e565b92915050565b60008135905061267b81613a25565b92915050565b60008151905061269081613a25565b92915050565b600082601f8301126126a757600080fd5b81356126b7848260208601612604565b91505092915050565b6000813590506126cf81613a3c565b92915050565b6000602082840312156126e757600080fd5b60006126f584828501612642565b91505092915050565b6000806040838503121561271157600080fd5b600061271f85828601612642565b925050602061273085828601612642565b9150509250929050565b60008060006060848603121561274f57600080fd5b600061275d86828701612642565b935050602061276e86828701612642565b925050604061277f868287016126c0565b9150509250925092565b6000806000806080858703121561279f57600080fd5b60006127ad87828801612642565b94505060206127be87828801612642565b93505060406127cf878288016126c0565b925050606085013567ffffffffffffffff8111156127ec57600080fd5b6127f887828801612696565b91505092959194509250565b6000806040838503121561281757600080fd5b600061282585828601612642565b925050602061283685828601612657565b9150509250929050565b6000806040838503121561285357600080fd5b600061286185828601612642565b9250506020612872858286016126c0565b9150509250929050565b60006020828403121561288e57600080fd5b600061289c8482850161266c565b91505092915050565b6000602082840312156128b757600080fd5b60006128c584828501612681565b91505092915050565b6000602082840312156128e057600080fd5b60006128ee848285016126c0565b91505092915050565b60006129038383612d46565b60208301905092915050565b61291881613278565b82525050565b600061292982613151565b612933818561317f565b935061293e8361312c565b8060005b8381101561296f57815161295688826128f7565b975061296183613172565b925050600181019050612942565b5085935050505092915050565b6129858161328a565b82525050565b60006129968261315c565b6129a08185613190565b93506129b08185602086016132fb565b6129b9816134c7565b840191505092915050565b60006129cf82613167565b6129d981856131a1565b93506129e98185602086016132fb565b6129f2816134c7565b840191505092915050565b6000612a0882613167565b612a1281856131b2565b9350612a228185602086016132fb565b80840191505092915050565b60008154612a3b8161332e565b612a4581866131b2565b94506001821660008114612a605760018114612a7157612aa4565b60ff19831686528186019350612aa4565b612a7a8561313c565b60005b83811015612a9c57815481890152600182019150602081019050612a7d565b838801955050505b50505092915050565b6000612aba602d836131a1565b9150612ac5826134d8565b604082019050919050565b6000612add6018836131a1565b9150612ae882613527565b602082019050919050565b6000612b00602b836131a1565b9150612b0b82613550565b604082019050919050565b6000612b236032836131a1565b9150612b2e8261359f565b604082019050919050565b6000612b466026836131a1565b9150612b51826135ee565b604082019050919050565b6000612b696025836131a1565b9150612b748261363d565b604082019050919050565b6000612b8c601c836131a1565b9150612b978261368c565b602082019050919050565b6000612baf6024836131a1565b9150612bba826136b5565b604082019050919050565b6000612bd26019836131a1565b9150612bdd82613704565b602082019050919050565b6000612bf5602c836131a1565b9150612c008261372d565b604082019050919050565b6000612c186038836131a1565b9150612c238261377c565b604082019050919050565b6000612c3b602a836131a1565b9150612c46826137cb565b604082019050919050565b6000612c5e6029836131a1565b9150612c698261381a565b604082019050919050565b6000612c816020836131a1565b9150612c8c82613869565b602082019050919050565b6000612ca4602c836131a1565b9150612caf82613892565b604082019050919050565b6000612cc76020836131a1565b9150612cd2826138e1565b602082019050919050565b6000612cea6021836131a1565b9150612cf58261390a565b604082019050919050565b6000612d0d6031836131a1565b9150612d1882613959565b604082019050919050565b6000612d30602c836131a1565b9150612d3b826139a8565b604082019050919050565b612d4f816132e2565b82525050565b612d5e816132e2565b82525050565b6000612d7082866129fd565b9150612d7c82856129fd565b9150612d888284612a2e565b9150819050949350505050565b6000602082019050612daa600083018461290f565b92915050565b6000608082019050612dc5600083018761290f565b612dd2602083018661290f565b612ddf6040830185612d55565b8181036060830152612df1818461298b565b905095945050505050565b60006020820190508181036000830152612e16818461291e565b905092915050565b6000602082019050612e33600083018461297c565b92915050565b60006020820190508181036000830152612e5381846129c4565b905092915050565b60006020820190508181036000830152612e7481612aad565b9050919050565b60006020820190508181036000830152612e9481612ad0565b9050919050565b60006020820190508181036000830152612eb481612af3565b9050919050565b60006020820190508181036000830152612ed481612b16565b9050919050565b60006020820190508181036000830152612ef481612b39565b9050919050565b60006020820190508181036000830152612f1481612b5c565b9050919050565b60006020820190508181036000830152612f3481612b7f565b9050919050565b60006020820190508181036000830152612f5481612ba2565b9050919050565b60006020820190508181036000830152612f7481612bc5565b9050919050565b60006020820190508181036000830152612f9481612be8565b9050919050565b60006020820190508181036000830152612fb481612c0b565b9050919050565b60006020820190508181036000830152612fd481612c2e565b9050919050565b60006020820190508181036000830152612ff481612c51565b9050919050565b6000602082019050818103600083015261301481612c74565b9050919050565b6000602082019050818103600083015261303481612c97565b9050919050565b6000602082019050818103600083015261305481612cba565b9050919050565b6000602082019050818103600083015261307481612cdd565b9050919050565b6000602082019050818103600083015261309481612d00565b9050919050565b600060208201905081810360008301526130b481612d23565b9050919050565b60006020820190506130d06000830184612d55565b92915050565b60006130e06130f1565b90506130ec8282613360565b919050565b6000604051905090565b600067ffffffffffffffff82111561311657613115613498565b5b61311f826134c7565b9050602081019050919050565b6000819050602082019050919050565b60008190508160005260206000209050919050565b600081519050919050565b600081519050919050565b600081519050919050565b6000602082019050919050565b600082825260208201905092915050565b600082825260208201905092915050565b600082825260208201905092915050565b600081905092915050565b60006131c8826132e2565b91506131d3836132e2565b9250827fffffffffffffffffffffffffffffffffffffffffffffffffffffffffffffffff038211156132085761320761340b565b5b828201905092915050565b600061321e826132e2565b9150613229836132e2565b9250826132395761323861343a565b5b828204905092915050565b600061324f826132e2565b915061325a836132e2565b92508282101561326d5761326c61340b565b5b828203905092915050565b6000613283826132c2565b9050919050565b60008115159050919050565b60007fffffffff0000000000000000000000000000000000000000000000000000000082169050919050565b600073ffffffffffffffffffffffffffffffffffffffff82169050919050565b6000819050919050565b82818337600083830152505050565b60005b838110156133195780820151818401526020810190506132fe565b83811115613328576000848401525b50505050565b6000600282049050600182168061334657607f821691505b6020821081141561335a57613359613469565b5b50919050565b613369826134c7565b810181811067ffffffffffffffff8211171561338857613387613498565b5b80604052505050565b600061339c826132e2565b91507fffffffffffffffffffffffffffffffffffffffffffffffffffffffffffffffff8214156133cf576133ce61340b565b5b600182019050919050565b60006133e5826132e2565b91506133f0836132e2565b925082613400576133ff61343a565b5b828206905092915050565b7f4e487b7100000000000000000000000000000000000000000000000000000000600052601160045260246000fd5b7f4e487b7100000000000000000000000000000000000000000000000000000000600052601260045260246000fd5b7f4e487b7100000000000000000000000000000000000000000000000000000000600052602260045260246000fd5b7f4e487b7100000000000000000000000000000000000000000000000000000000600052604160045260246000fd5b6000601f19601f8301169050919050565b7f4552433732314d657461646174613a2055524920717565727920666f72206e6f60008201527f6e6578697374656e74204e465400000000000000000000000000000000000000602082015250565b7f596f752063616e2774206d696e74207a65726f204e46542e0000000000000000600082015250565b7f455243373231456e756d657261626c653a206f776e657220696e646578206f7560008201527f74206f6620626f756e6473000000000000000000000000000000000000000000602082015250565b7f4552433732313a207472616e7366657220746f206e6f6e20455243373231526560008201527f63656976657220696d706c656d656e7465720000000000000000000000000000602082015250565b7f4f776e61626c653a206e6577206f776e657220697320746865207a65726f206160008201527f6464726573730000000000000000000000000000000000000000000000000000602082015250565b7f4552433732313a207472616e736665722066726f6d20696e636f72726563742060008201527f6f776e6572000000000000000000000000000000000000000000000000000000602082015250565b7f4552433732313a20746f6b656e20616c7265616479206d696e74656400000000600082015250565b7f4552433732313a207472616e7366657220746f20746865207a65726f2061646460008201527f7265737300000000000000000000000000000000000000000000000000000000602082015250565b7f4552433732313a20617070726f766520746f2063616c6c657200000000000000600082015250565b7f4552433732313a206f70657261746f7220717565727920666f72206e6f6e657860008201527f697374656e7420746f6b656e0000000000000000000000000000000000000000602082015250565b7f4552433732313a20617070726f76652063616c6c6572206973206e6f74206f7760008201527f6e6572206e6f7220617070726f76656420666f7220616c6c0000000000000000602082015250565b7f4552433732313a2062616c616e636520717565727920666f7220746865207a6560008201527f726f206164647265737300000000000000000000000000000000000000000000602082015250565b7f4552433732313a206f776e657220717565727920666f72206e6f6e657869737460008201527f656e7420746f6b656e0000000000000000000000000000000000000000000000602082015250565b7f4552433732313a206d696e7420746f20746865207a65726f2061646472657373600082015250565b7f4552433732313a20617070726f76656420717565727920666f72206e6f6e657860008201527f697374656e7420746f6b656e0000000000000000000000000000000000000000602082015250565b7f4f776e61626c653a2063616c6c6572206973206e6f7420746865206f776e6572600082015250565b7f4552433732313a20617070726f76616c20746f2063757272656e74206f776e6560008201527f7200000000000000000000000000000000000000000000000000000000000000602082015250565b7f4552433732313a207472616e736665722063616c6c6572206973206e6f74206f60008201527f776e6572206e6f7220617070726f766564000000000000000000000000000000602082015250565b7f455243373231456e756d657261626c653a20676c6f62616c20696e646578206f60008201527f7574206f6620626f756e64730000000000000000000000000000000000000000602082015250565b613a0081613278565b8114613a0b57600080fd5b50565b613a178161328a565b8114613a2257600080fd5b50565b613a2e81613296565b8114613a3957600080fd5b50565b613a45816132e2565b8114613a5057600080fd5b5056fea26469706673582212200f65f097790801fb31ffbcb7271c09bf26f00bb5a6154ff4634b9808666520af64736f6c63430008030033a26469706673582212203b219d0c5c881e68031f12140cbd10bd0287ed5a4cccdad1fa90821a2191bf2e64736f6c63430008030033",
  "linkReferences": {},
  "deployedLinkReferences": {}
}